:020000000C945E
:10000200DB000C942E010C9455010C9400000C940E
:1000120000000C941D010C9400000C9400000C9440
:1000220000000C9400000C9400000C9408010C9445
:1000320000000C9400000C9400000C9400000C943E
:1000420000000C9400000C9400000C9400000C942E
:1000520000001027E80364000A00010000100001FC
:100062001000010003000010270000000000486F8C
:100072006D65203A2000312D436F6E74726F6C20D3
:100082004D6F746F7200322D446972656374696FCB
:100092006E00332D496E666F726D6174696F6E000A
:1000A20021212121007761726E696E672021210072
:1000B200312D4C6566742000322D526967687420B8
:1000C20000332D426F74682000342D53544F50007A
:1000D200312D676F20616865616400322D5265744D
:1000E20075726E00332D676F207269676874003411
:1000F2002D676F206C656674004C6566745370657D
:1001020065643A00526967687453706565643A00C1
:100112004675656C3A00312D4261636B20746F2025
:100122004D656E75000080C001002D4E414E0049A4
:100132004E460000090005006600080060027000DB
:100142001000680278000C00780288000E00840219
:10015200940005009202A2000B009702A70008007B
:10016200A202B2000900AA02BA000800B302C30048
:100172000700BB02CB000B00C202D2000900CD0275
:10018200DD000B00D602E6000A00E102F1000B00DE
:10019200EB02FB000C00F60206010600020312014C
:1001A2000F000803180102001703280101001E03B3
:1001B2002A010000F894EE27ECBBF1E0FBBFEBBF95
:1001C200E5BF8DE0A2E0BB27ED938A95E9F780E0D9
:1001D20098E0A0E6ED930197E9F7E6E3F1E0859177
:1001E2009591009761F0A591B59105901590BF0189
:1001F200F00105900D920197E1F7FB01F0CFEFE5D9
:10020200EDBFE8E0EEBFC0E6D2E00C9489010E94A7
:10021200B905F894E4EFF1E0EA15FB0534F4AA24F9
:10022200BB2463D22BD1AA24BB24F50131965F01F2
:10023200E0E0E2BF78945EC0EA93FA93EFB7EA9304
:10024200F30131963F01F60131966F01E0E0E4BD22
:10025200E991EFBFF991E99118950E94C70539F428
:10026200ECB7E23E18F4ECB7EC5EECBF1CC0E23037
:10027200A0E0FA0739F4E3B5E23E18F4E3B5EC5E28
:10028200E3BD11C0E330A0E0FA0769F4ECB7E23E47
:1002920018F4E3B5E23E08F006C0ECB7EC5EECBF42
:1002A200E3B5EC5EE3BD26C00E94C70539F4ECB7A6
:1002B200EF3118F0ECB7E451ECBF1CC0E230A0E023
:1002C200FA0739F4E3B5EF3118F0E3B5E451E3BDD1
:1002D20011C0E330A0E0FA0769F4ECB7EF3118F08F
:1002E200E3B5EF3108F406C0ECB7E451ECBFE3B577
:1002F200E451E3BDE991EFBFF991E991B991A99177
:100302009991899179916991F9901990099018952B
:1003120001E010E0EFEFE7BBEAEFEABBDA98E0EFCB
:10032200E4BBEFEFE5BBE3EFE1BB929A939A909ABD
:100332009198E0E0E7B9E3E8E6B9EAE6E3BFE0E096
:10034200E2BFECBFE2BDEAE6E5BDE0E0E4BDE3BD4D
:10035200EBB7E06CEBBFE0E0E5BFE4BFE0ECEABF87
:10036200E1E4E9BFE0E8E8B9E0E0E0BFA4E10E942F
:1003720068047894A5D10E94D205A0E6B2E00E945A
:10038200D905A1E00E941804A8E6B2E00E94D905AE
:10039200A2E00E941804A8E7B2E00E94D905A3E0F7
:1003A2000E941804A4E8B2E00E94DE058F01E1E099
:1003B200F0E0E017F10711F4B6D00DC0E2E0F0E092
:1003C200E017F10711F4DFD006C0E3E0F0E0E01738
:1003D200F10709F43BD1CFCFFFCF1A930A93EFED88
:1003E200E5BB9A9905C09A9BFECF03E010E044C09A
:1003F200999905C0999BFECF06E010E03DC09899FF
:1004020005C0989BFECF09E010E036C0EFEBE5BBDC
:100412009B9905C09B9BFECF00E010E02DC09A99EE
:1004220005C09A9BFECF02E010E026C0999905C054
:10043200999BFECF05E010E01FC0989905C0989BDC
:10044200FECF08E010E018C0EFE7E5BB9A9905C0BF
:100452009A9BFECF01E010E00FC0999905C0999BCD
:10046200FECF04E010E008C0989905C0989BFECF2B
:1004720007E010E001C0B3CFF801B6C12A97A0E0AF
:1004820024D10E94E205A3E8B0EC8AE990E40E943C
:100492005D070E94E7050E94EA050E94ED050E94A1
:1004A200AB070E94E7050E94F2050E94F505DE01F6
:1004B20019960E9497040E94EA05E0E0F0E06CE8D9
:1004C20072E40E94F00709F008F403C00E94FA05E2
:1004D20008F009C0E0E10E940206A2E9B2E00E942F
:1004E2005704959A1AC00E94FA0509F008F40DC043
:1004F2000E942904A7E9B2E00E945704A4E6B0E0F2
:100502000E945D060E94060608C0E0E10E94020603
:10051200DE0114960E94570402C09598B0CFE1E420
:10052200E9BFF894CBC01A930E94D205A2EAB2E0C6
:100532000E94D905A1E00E941804AAEAB2E00E9432
:10054200D905A2E00E941804A3EBB2E00E94D905EB
:10055200A3E00E941804ABEBB2E00E94DE051E2F5E
:10056200113011F4512E0EC0123011F4512E0AC066
:10057200133011F4512E06C0143021F49098919842
:100582000E94060661C01A939498DE98DF980E9432
:10059200D205A2ECB2E00E94D905A1E048D1ADECAF
:1005A200B2E00E94D905A2E042D1A6EDB2E00E94DB
:1005B200D905A3E03CD1A1EEB2E00E94DE051E2FD8
:1005C200F0E0E130A0E0FA0741F4909A9198E0E877
:1005D200ECBFE3BDE1E04E2E37C0E230A0E0FA0707
:1005E20041F49098919AE0E8ECBFE3BD4424949AD8
:1005F2002BC0E330A0E0FA0791F4E1E0E41911F432
:10060200909801C0909AE42DE03011F4919801C0C5
:10061200919AEFEFECBFE0E8E3BDDE9A15C0E4305B
:10062200A0E0FA0789F4E1E0E41911F4909801C01E
:10063200909AE42DE03011F4919801C0919AE0E88B
:10064200ECBFEFEFE3BDDF9A199108952A970E945C
:10065200D205ABEEB2E02AD1ECE00E940206ECB782
:100662000E940A060E9410060E94D905A1E0DFD06E
:10067200A6EFB2E01BD1ECE0EA93A1E0D8D0E3B55B
:100682000E940A060E94100611D185D0E0E00E9465
:100692001606A2E0B3E00AD1ECE00E941606F401CD
:1006A2000E94E2050E94F5050E9410060E94D905EB
:1006B200A3E0BDD0A8E0B3E00E94DE052A9608952B
:1006C200E7E8E6B9E0E4E7B90895AA93E881E770BC
:1006D200E064E7B9369A349BFECF349AA1E0B0E0E9
:1006E2000E945D06E4B1F5B11FC12E97E0E0EA87F2
:1006F200EB87EC87ED871A930A937894E0E4E9BFDD
:10070200D99A8BE18A95F1F7D998CA9BFECFCC246E
:10071200DD24E0E0E4BDCA9B0FC0E5E0F0E0EC15AB
:10072200FD054CF4E0E0F0E060E87FE3EC87FD8754
:100732006E877F8701C0EFCFBC2DA0E0E4B5F0E06B
:10074200EA0FFB1F8F01EC85FD856E857F850E9478
:100752007D08E9F4909891980E940606F8010E949B
:10076200E205ABE7B4E18EE29EE30E945D07EC870F
:10077200FD876E877F870E94F505DE0117960E942E
:100782009704EEE00E941606DE0112968FD01981C0
:100792000881609608951A930A93ECB7F0E0DF019E
:1007A200E3B5F0E0AE0FBF1FE2E0F0E00E943F08C9
:1007B2008F010E94E205A7E1B7EB81ED98E30E9469
:1007C2005D07DF01CB01F3010E94E2050E945D0794
:1007D200D4010E9427080E946D080E941A060E94F6
:1007E2009C064F0166247724099119910895AA93D2
:1007F200E8B3EF70AE2FE881E07FEA2BE8BB8DE033
:100802008A95F1F7C29A8DE08A95F1F7C2988DE048
:100812008A95F1F789C0AA93A881E9DFE881E29578
:10082200E883A881E4DF85E88A95F1F77DC0AA9381
:10083200E881F0E0E95EFC4FE081A981AE0FEBDFD9
:10084200E981E0931B03E881E0931C03229608955B
:10085200A2E00E941F06ACE0DEDFA1E00E941F06BC
:10086200E0E0E0931C03E0931B030895AA93A881A0
:10087200AA3031F0E0911D03A0911B03AE1760F086
:10088200E0E0EA93A0911C03AF5FA0931C03CFDFCB
:10089200A881AA3009F448C0E0911B03EF5FE093FE
:1008A2001B03C09AA881B7DFC0983EC0BA93AA932F
:1008B2001A93A981BA81ED91A983BA831E2FE030E0
:1008C20019F0A12FD3DFF5CF188123960895AA93AB
:1008D200E7B3E06FE7BBBA9AB89AB99AC298C098E0
:1008E200C198E881E0931D03E058E0931903E88181
:1008F200E054E0931A03A4E1B0E00E945D060E9476
:1009020025060E9425060E942506A0E270DF88ECDB
:1009120090E00197F1F7A8E27EDFA4E07CDFA5E892
:100922007ADFA6E078DF94DF21960895BA93AA933E
:100932002497E0E0E883E983EA83EFE3EB831A9309
:100942000A93EB85FC85EF3FAFEFFA0739F40E947B
:100952002D06ACE2B1E00E946805B5C0EF3FAFE7FB
:10096200FA0739F40E942D06ADE2B1E00E94680553
:10097200AAC0AC85AA2362F4E985FA856B857C85D9
:100982000E9467060E9432060E943706EDE2EC934F
:10099200A885A73010F0E6E0E8871885E12F11500E
:1009A200E03039F00E943E060E9443060E944A0649
:1009B200F5CF0E944F060E940D070E94320610E0FA
:1009C200E0E0F0E060E87FE30E944A060E944F0602
:1009D2000E94F00798F00E943E060E94ED050E94D8
:1009E2005D070E944A061F5F173238F00E942D06EB
:1009F200A1E3B1E00E94680566C0E8CF103029F497
:100A02000E943706E0E3EC932FC0E12F1150E03053
:100A120059F10E943E060E944306A0E0B0E080E049
:100A22009FE30E940D07DF01CB010E94A6050E94F1
:100A32004A060E944F060E94AB070E949A060E2F9A
:100A42000E943706E02FE05DEC93E02FF0E00E9479
:100A52003E060E94E2050E945D070E9458060E941F
:100A62001A060E943206D1CFE885E03041F10E9499
:100A72003706EEE2EC93E885E150E887EF5FF9F0A4
:100A82000E9458060E94ED050E945D070E943206F0
:100A9200E985FA856B857C850E949A060E2F0E9455
:100AA2003706E02FE05DEC93E02FF0E00E9458065D
:100AB2000E94E2050E941A060E943206DCCFAE8135
:100AC200BF81E0E0EC93198108812D960895BA93D5
:100AD200AA93E991F991A991B991CD0105900D924D
:100AE2000020E1F7FC0108950E9466087B816A817B
:100AF200F981E88177FB770F67FD7160972F9E5729
:100B020081F078F0983190F4AA27BB2788270894BF
:100B12008795B795A7959A95D1F7EA23FB23682382
:100B220005C0E8947727EE27FF2766276F7776952B
:100B320008F4606877F9A991B99189919991EA17B6
:100B4200FB076807790797FB08950E94660841D062
:100B52000E9475053BD011F444D008C0EEF741D095
:100B6200A0E0B0E080E89FE30E9406072496089583
:100B72000A921A92FA926A937A938A939A93AA930E
:100B8200BA93EA93FA93EFB7EA930895F1DFAAE0F2
:100B9200B0E00E945D06E52DF0E0E130A0E0FA074A
:100BA20008950E942904E0E0EA93A0E00C9418045E
:100BB2000E945704E0E0EA9308950E9457040C94BF
:100BC200EE010E9422080E94D30608950E945C084A
:100BD20008950E9457080895E0E0F0E060E271E4B1
:100BE20008950E94520808950E946108E1E0EA9384
:100BF2000895EFDFE0E0F0E060EA72E40E94F007BF
:100C02000895EA93A0E00C941804E0E0ECBFE3BD81
:100C12000895FF27662777270E94D306E5CFDE01D6
:100C220015960E949704DE010895EA93A2E00C94BF
:100C320018040E9470080E94060708950E940C047E
:100C4200A3E0B0E00C945D06A0E30E94F80388ECF8
:100C520090E00197F1F70895EE81FF81FA93EA930C
:100C62000895E987FA876B877C870895AE81BF81F3
:100C72001196AE83BF8311970895AA81BB818C819F
:100C82009D810895EDECFCEC6CEC7DE30E945D0728
:100C92000895EA83FB836C837D830895EA81FB8157
:100CA2006C817D81A985BA858B859C850895A985EE
:100CB200BA858B859C850895109639F080ED97E072
:100CC2000197F1F7A8951197C9F7089530976040F9
:100CD200704009F070580895552342F4503811F4C9
:100CE200E0FF04C03196691F791F6BF050E8572767
:100CF20011F45F93CFC05F3F31F0660F000C579540
:100D02006795752F08955F9300200AF0CFC0C8C081
:100D120050E8192E1522880F991F9527550F879590
:100D220050E8072E0522660F771F7527550F679526
:100D32000895689401C0E8945F93F2DF703818F068
:100D42007F3F08F4A7C056E1571BAAF451955830CB
:100D52000EF4593030F0EFEFFFEF6FEF7FE777F9E6
:100D62001AC077275523B9F0EE0FFF1F661F771FB2
:100D72005A95D1F710C07727583028F0EF2FF62F69
:100D8200672F5850F9CF552331F076956795F7952F
:100D9200E7955A95D1F700200AF445D15F9108955D
:100DA200689401C0E894309760407040B1F000242C
:100DB20026F0772312F4009436D1172E7EE111200B
:100DC20032F07A95EE0FFF1F661F111CF9CFEF2F3D
:100DD200F62F612D5F938ADF5F9108954F93AF01E4
:100DE200FD01DA01AB01BC01CA01402D012C142E18
:100DF2004F910895EA0FFB1F681F0895E095F09543
:100E02006095EF5FFF4F6F4F08955F9381DF9038DA
:100E120071F150E8152604C05F937ADF903839F1FA
:100E2200703821F1572F591B2BF112F4D7DFFACF6B
:100E3200583118F0AA27BB278827583028F0AB2F43
:100E4200B82F88275850F9CF552329F08695B795A2
:100E5200A7955A95D9F7502D512572F0CBDF38F46A
:100E62006795F795E795739513F420C0B7DF3EDFDA
:100E72005F910895D8F7FBCFEA1BFB0B680B51F08B
:100E820010F40094BBDF662392F3EE0FFF1F661F80
:100E92007A95CBF7EE27FF27662777275F9108958C
:100EA200EFEFFFEF6FE77FEF5F910895EFEFFFEF57
:100EB2006FE77FE75F9108955F932ADF703851F300
:100EC200903841F301240894791F23F41CF3002085
:100ED2003AF3ECCF0F921F932F933F934F93112727
:100EE20022279927689FA0018F9F302D410D591FFE
:100EF2006B9F300D411D591F8E9F27D0BF9F25D05C
:100F02006A9F23D0BE9F1DD0AF9F1BD0AE9F110DF5
:100F1200291F391F491F591FE32FF42F652F522F05
:100F22004F913F912F911F910F9066232AF0550FF9
:100F3200EE1FFF1F661F02C073954BF2CDDE5F915D
:100F42000895100D211D391F02C0200D311D491FAA
:100F5200591F08955F93DCDE703821F411200AF4E2
:100F62009FCFA4CF903809F495CF01240894970B12
:100F72001BF4D4F30020F3CF792F1F932F933F93C9
:100F82004F9311241127222733274427552790E214
:100F9200AE17BF078607410730F0AE1BBF0B860BAB
:100FA200410B089401C08894551F221F331F111C46
:100FB200AA1FBB1F881F441F9A9551F7F901612D83
:100FC2004F913F912F911F91662332F0550FEE1FE3
:100FD200FF1F661F7A9543F27FDE5F910895992382
:100FE2009AF0772342F0971748F029F4AE17BF071B
:100FF200860720F031F09894889408959894089484
:1010020008951894889408957723C2F7971798F350
:10101200A9F7EA17FB07680788F399F3ECCFF19574
:10102200E195F0400895F09560957095E195FF4F38
:101032006F4F7F4F0895FE2FFF0FFF0B6F2F7F2FF4
:1010420008956F2F660F660B762F08958B2F880FEA
:10105200880B982F08950024112490E1AA0FBB1F3A
:10106200001C111C0E1A1F0A18F40E0E1F1E01C0BE
:10107200A1609A9599F7FD01D001089504D0EBDFA4
:101082000EF4CDDF0895E894F7FF02C0C8DF68943C
:10109200B7FF06C0A095B095119600F8039400FA28
:1010A2000895E881F9816A817B810895A881B981D7
:1010B2008A819B810895E883F9836A837B830895FB
:1010C2007A936A93FA93EA9308959A938A93BA93D6
:1010D200AA930895689401C0E89401D064DE182EA2
:1010E200862F612D192E972F712D1B2EBF2FF12DBB
:1010F2001A2EAE2FE12D089530976040704008956A
:00000001FF
